{
  "_format": "hh3-artifact-1",
  "contractName": "StrategyNFT",
  "sourceName": "contracts/StrategyNFT.sol",
  "abi": [
    {
      "inputs": [],
      "stateMutability": "nonpayable",
      "type": "constructor"
    },
    {
      "inputs": [
        {
          "internalType": "address",
          "name": "sender",
          "type": "address"
        },
        {
          "internalType": "uint256",
          "name": "tokenId",
          "type": "uint256"
        },
        {
          "internalType": "address",
          "name": "owner",
          "type": "address"
        }
      ],
      "name": "ERC721IncorrectOwner",
      "type": "error"
    },
    {
      "inputs": [
        {
          "internalType": "address",
          "name": "operator",
          "type": "address"
        },
        {
          "internalType": "uint256",
          "name": "tokenId",
          "type": "uint256"
        }
      ],
      "name": "ERC721InsufficientApproval",
      "type": "error"
    },
    {
      "inputs": [
        {
          "internalType": "address",
          "name": "approver",
          "type": "address"
        }
      ],
      "name": "ERC721InvalidApprover",
      "type": "error"
    },
    {
      "inputs": [
        {
          "internalType": "address",
          "name": "operator",
          "type": "address"
        }
      ],
      "name": "ERC721InvalidOperator",
      "type": "error"
    },
    {
      "inputs": [
        {
          "internalType": "address",
          "name": "owner",
          "type": "address"
        }
      ],
      "name": "ERC721InvalidOwner",
      "type": "error"
    },
    {
      "inputs": [
        {
          "internalType": "address",
          "name": "receiver",
          "type": "address"
        }
      ],
      "name": "ERC721InvalidReceiver",
      "type": "error"
    },
    {
      "inputs": [
        {
          "internalType": "address",
          "name": "sender",
          "type": "address"
        }
      ],
      "name": "ERC721InvalidSender",
      "type": "error"
    },
    {
      "inputs": [
        {
          "internalType": "uint256",
          "name": "tokenId",
          "type": "uint256"
        }
      ],
      "name": "ERC721NonexistentToken",
      "type": "error"
    },
    {
      "inputs": [
        {
          "internalType": "address",
          "name": "owner",
          "type": "address"
        }
      ],
      "name": "OwnableInvalidOwner",
      "type": "error"
    },
    {
      "inputs": [
        {
          "internalType": "address",
          "name": "account",
          "type": "address"
        }
      ],
      "name": "OwnableUnauthorizedAccount",
      "type": "error"
    },
    {
      "anonymous": false,
      "inputs": [
        {
          "indexed": true,
          "internalType": "address",
          "name": "owner",
          "type": "address"
        },
        {
          "indexed": true,
          "internalType": "address",
          "name": "approved",
          "type": "address"
        },
        {
          "indexed": true,
          "internalType": "uint256",
          "name": "tokenId",
          "type": "uint256"
        }
      ],
      "name": "Approval",
      "type": "event"
    },
    {
      "anonymous": false,
      "inputs": [
        {
          "indexed": true,
          "internalType": "address",
          "name": "owner",
          "type": "address"
        },
        {
          "indexed": true,
          "internalType": "address",
          "name": "operator",
          "type": "address"
        },
        {
          "indexed": false,
          "internalType": "bool",
          "name": "approved",
          "type": "bool"
        }
      ],
      "name": "ApprovalForAll",
      "type": "event"
    },
    {
      "anonymous": false,
      "inputs": [
        {
          "indexed": true,
          "internalType": "address",
          "name": "previousOwner",
          "type": "address"
        },
        {
          "indexed": true,
          "internalType": "address",
          "name": "newOwner",
          "type": "address"
        }
      ],
      "name": "OwnershipTransferred",
      "type": "event"
    },
    {
      "anonymous": false,
      "inputs": [
        {
          "indexed": true,
          "internalType": "address",
          "name": "from",
          "type": "address"
        },
        {
          "indexed": true,
          "internalType": "address",
          "name": "to",
          "type": "address"
        },
        {
          "indexed": true,
          "internalType": "uint256",
          "name": "tokenId",
          "type": "uint256"
        }
      ],
      "name": "Transfer",
      "type": "event"
    },
    {
      "inputs": [
        {
          "internalType": "address",
          "name": "to",
          "type": "address"
        },
        {
          "internalType": "uint256",
          "name": "tokenId",
          "type": "uint256"
        }
      ],
      "name": "approve",
      "outputs": [],
      "stateMutability": "nonpayable",
      "type": "function"
    },
    {
      "inputs": [
        {
          "internalType": "address",
          "name": "owner",
          "type": "address"
        }
      ],
      "name": "balanceOf",
      "outputs": [
        {
          "internalType": "uint256",
          "name": "",
          "type": "uint256"
        }
      ],
      "stateMutability": "view",
      "type": "function"
    },
    {
      "inputs": [
        {
          "internalType": "uint256",
          "name": "tokenId",
          "type": "uint256"
        }
      ],
      "name": "getApproved",
      "outputs": [
        {
          "internalType": "address",
          "name": "",
          "type": "address"
        }
      ],
      "stateMutability": "view",
      "type": "function"
    },
    {
      "inputs": [
        {
          "internalType": "address",
          "name": "owner",
          "type": "address"
        },
        {
          "internalType": "address",
          "name": "operator",
          "type": "address"
        }
      ],
      "name": "isApprovedForAll",
      "outputs": [
        {
          "internalType": "bool",
          "name": "",
          "type": "bool"
        }
      ],
      "stateMutability": "view",
      "type": "function"
    },
    {
      "inputs": [
        {
          "internalType": "address",
          "name": "to",
          "type": "address"
        },
        {
          "internalType": "uint256",
          "name": "strategyId",
          "type": "uint256"
        }
      ],
      "name": "mintStrategy",
      "outputs": [
        {
          "internalType": "uint256",
          "name": "",
          "type": "uint256"
        }
      ],
      "stateMutability": "nonpayable",
      "type": "function"
    },
    {
      "inputs": [],
      "name": "name",
      "outputs": [
        {
          "internalType": "string",
          "name": "",
          "type": "string"
        }
      ],
      "stateMutability": "view",
      "type": "function"
    },
    {
      "inputs": [],
      "name": "nextTokenId",
      "outputs": [
        {
          "internalType": "uint256",
          "name": "",
          "type": "uint256"
        }
      ],
      "stateMutability": "view",
      "type": "function"
    },
    {
      "inputs": [],
      "name": "owner",
      "outputs": [
        {
          "internalType": "address",
          "name": "",
          "type": "address"
        }
      ],
      "stateMutability": "view",
      "type": "function"
    },
    {
      "inputs": [
        {
          "internalType": "uint256",
          "name": "tokenId",
          "type": "uint256"
        }
      ],
      "name": "ownerOf",
      "outputs": [
        {
          "internalType": "address",
          "name": "",
          "type": "address"
        }
      ],
      "stateMutability": "view",
      "type": "function"
    },
    {
      "inputs": [],
      "name": "renounceOwnership",
      "outputs": [],
      "stateMutability": "nonpayable",
      "type": "function"
    },
    {
      "inputs": [
        {
          "internalType": "address",
          "name": "from",
          "type": "address"
        },
        {
          "internalType": "address",
          "name": "to",
          "type": "address"
        },
        {
          "internalType": "uint256",
          "name": "tokenId",
          "type": "uint256"
        }
      ],
      "name": "safeTransferFrom",
      "outputs": [],
      "stateMutability": "nonpayable",
      "type": "function"
    },
    {
      "inputs": [
        {
          "internalType": "address",
          "name": "from",
          "type": "address"
        },
        {
          "internalType": "address",
          "name": "to",
          "type": "address"
        },
        {
          "internalType": "uint256",
          "name": "tokenId",
          "type": "uint256"
        },
        {
          "internalType": "bytes",
          "name": "data",
          "type": "bytes"
        }
      ],
      "name": "safeTransferFrom",
      "outputs": [],
      "stateMutability": "nonpayable",
      "type": "function"
    },
    {
      "inputs": [
        {
          "internalType": "address",
          "name": "operator",
          "type": "address"
        },
        {
          "internalType": "bool",
          "name": "approved",
          "type": "bool"
        }
      ],
      "name": "setApprovalForAll",
      "outputs": [],
      "stateMutability": "nonpayable",
      "type": "function"
    },
    {
      "inputs": [
        {
          "internalType": "uint256",
          "name": "",
          "type": "uint256"
        }
      ],
      "name": "strategyIdOf",
      "outputs": [
        {
          "internalType": "uint256",
          "name": "",
          "type": "uint256"
        }
      ],
      "stateMutability": "view",
      "type": "function"
    },
    {
      "inputs": [
        {
          "internalType": "bytes4",
          "name": "interfaceId",
          "type": "bytes4"
        }
      ],
      "name": "supportsInterface",
      "outputs": [
        {
          "internalType": "bool",
          "name": "",
          "type": "bool"
        }
      ],
      "stateMutability": "view",
      "type": "function"
    },
    {
      "inputs": [],
      "name": "symbol",
      "outputs": [
        {
          "internalType": "string",
          "name": "",
          "type": "string"
        }
      ],
      "stateMutability": "view",
      "type": "function"
    },
    {
      "inputs": [
        {
          "internalType": "uint256",
          "name": "tokenId",
          "type": "uint256"
        }
      ],
      "name": "tokenURI",
      "outputs": [
        {
          "internalType": "string",
          "name": "",
          "type": "string"
        }
      ],
      "stateMutability": "view",
      "type": "function"
    },
    {
      "inputs": [
        {
          "internalType": "address",
          "name": "from",
          "type": "address"
        },
        {
          "internalType": "address",
          "name": "to",
          "type": "address"
        },
        {
          "internalType": "uint256",
          "name": "tokenId",
          "type": "uint256"
        }
      ],
      "name": "transferFrom",
      "outputs": [],
      "stateMutability": "nonpayable",
      "type": "function"
    },
    {
      "inputs": [
        {
          "internalType": "address",
          "name": "newOwner",
          "type": "address"
        }
      ],
      "name": "transferOwnership",
      "outputs": [],
      "stateMutability": "nonpayable",
      "type": "function"
    }
  ],
  "bytecode": "0x608060405234801561000f575f5ffd5b50336040518060400160405280600f81526020017f53747261745820537472617465677900000000000000000000000000000000008152506040518060400160405280600581526020017f5354524154000000000000000000000000000000000000000000000000000000815250815f908161008b9190610423565b50806001908161009b9190610423565b5050505f73ffffffffffffffffffffffffffffffffffffffff168173ffffffffffffffffffffffffffffffffffffffff160361010e575f6040517f1e4fbdf70000000000000000000000000000000000000000000000000000000081526004016101059190610531565b60405180910390fd5b61011d8161012360201b60201c565b5061054a565b5f60065f9054906101000a900473ffffffffffffffffffffffffffffffffffffffff1690508160065f6101000a81548173ffffffffffffffffffffffffffffffffffffffff021916908373ffffffffffffffffffffffffffffffffffffffff1602179055508173ffffffffffffffffffffffffffffffffffffffff168173ffffffffffffffffffffffffffffffffffffffff167f8be0079c531659141344cd1fd0a4f28419497f9722a3daafe3b4186f6b6457e060405160405180910390a35050565b5f81519050919050565b7f4e487b71000000000000000000000000000000000000000000000000000000005f52604160045260245ffd5b7f4e487b71000000000000000000000000000000000000000000000000000000005f52602260045260245ffd5b5f600282049050600182168061026157607f821691505b6020821081036102745761027361021d565b5b50919050565b5f819050815f5260205f209050919050565b5f6020601f8301049050919050565b5f82821b905092915050565b5f600883026102d67fffffffffffffffffffffffffffffffffffffffffffffffffffffffffffffffff8261029b565b6102e0868361029b565b95508019841693508086168417925050509392505050565b5f819050919050565b5f819050919050565b5f61032461031f61031a846102f8565b610301565b6102f8565b9050919050565b5f819050919050565b61033d8361030a565b6103516103498261032b565b8484546102a7565b825550505050565b5f5f905090565b610368610359565b610373818484610334565b505050565b5b818110156103965761038b5f82610360565b600181019050610379565b5050565b601f8211156103db576103ac8161027a565b6103b58461028c565b810160208510156103c4578190505b6103d86103d08561028c565b830182610378565b50505b505050565b5f82821c905092915050565b5f6103fb5f19846008026103e0565b1980831691505092915050565b5f61041383836103ec565b9150826002028217905092915050565b61042c826101e6565b67ffffffffffffffff811115610445576104446101f0565b5b61044f825461024a565b61045a82828561039a565b5f60209050601f83116001811461048b575f8415610479578287015190505b6104838582610408565b8655506104ea565b601f1984166104998661027a565b5f5b828110156104c05784890151825560018201915060208501945060208101905061049b565b868310156104dd57848901516104d9601f8916826103ec565b8355505b6001600288020188555050505b505050505050565b5f73ffffffffffffffffffffffffffffffffffffffff82169050919050565b5f61051b826104f2565b9050919050565b61052b81610511565b82525050565b5f6020820190506105445f830184610522565b92915050565b6120b1806105575f395ff3fe608060405234801561000f575f5ffd5b506004361061011f575f3560e01c8063715018a6116100ab578063b88d4fde1161006f578063b88d4fde14610305578063c87b56dd14610321578063e4736a6e14610351578063e985e9c514610381578063f2fde38b146103b15761011f565b8063715018a61461028557806375794a3c1461028f5780638da5cb5b146102ad57806395d89b41146102cb578063a22cb465146102e95761011f565b806323b872dd116100f257806323b872dd146101bd57806342842e0e146101d9578063442d90a2146101f55780636352211e1461022557806370a08231146102555761011f565b806301ffc9a71461012357806306fdde0314610153578063081812fc14610171578063095ea7b3146101a1575b5f5ffd5b61013d600480360381019061013891906118e8565b6103cd565b60405161014a919061192d565b60405180910390f35b61015b6104ae565b60405161016891906119b6565b60405180910390f35b61018b60048036038101906101869190611a09565b61053d565b6040516101989190611a73565b60405180910390f35b6101bb60048036038101906101b69190611ab6565b610558565b005b6101d760048036038101906101d29190611af4565b61056e565b005b6101f360048036038101906101ee9190611af4565b61066d565b005b61020f600480360381019061020a9190611a09565b61068c565b60405161021c9190611b53565b60405180910390f35b61023f600480360381019061023a9190611a09565b6106a1565b60405161024c9190611a73565b60405180910390f35b61026f600480360381019061026a9190611b6c565b6106b2565b60405161027c9190611b53565b60405180910390f35b61028d610768565b005b61029761077b565b6040516102a49190611b53565b60405180910390f35b6102b5610781565b6040516102c29190611a73565b60405180910390f35b6102d36107a9565b6040516102e091906119b6565b60405180910390f35b61030360048036038101906102fe9190611bc1565b610839565b005b61031f600480360381019061031a9190611d2b565b61084f565b005b61033b60048036038101906103369190611a09565b610874565b60405161034891906119b6565b60405180910390f35b61036b60048036038101906103669190611ab6565b6108da565b6040516103789190611b53565b60405180910390f35b61039b60048036038101906103969190611dab565b610926565b6040516103a8919061192d565b60405180910390f35b6103cb60048036038101906103c69190611b6c565b6109b4565b005b5f7f80ac58cd000000000000000000000000000000000000000000000000000000007bffffffffffffffffffffffffffffffffffffffffffffffffffffffff1916827bffffffffffffffffffffffffffffffffffffffffffffffffffffffff1916148061049757507f5b5e139f000000000000000000000000000000000000000000000000000000007bffffffffffffffffffffffffffffffffffffffffffffffffffffffff1916827bffffffffffffffffffffffffffffffffffffffffffffffffffffffff1916145b806104a757506104a682610a38565b5b9050919050565b60605f80546104bc90611e16565b80601f01602080910402602001604051908101604052809291908181526020018280546104e890611e16565b80156105335780601f1061050a57610100808354040283529160200191610533565b820191905f5260205f20905b81548152906001019060200180831161051657829003601f168201915b5050505050905090565b5f61054782610aa1565b5061055182610b27565b9050919050565b61056a8282610565610b60565b610b67565b5050565b5f73ffffffffffffffffffffffffffffffffffffffff168273ffffffffffffffffffffffffffffffffffffffff16036105de575f6040517f64a0ae920000000000000000000000000000000000000000000000000000000081526004016105d59190611a73565b60405180910390fd5b5f6105f183836105ec610b60565b610b79565b90508373ffffffffffffffffffffffffffffffffffffffff168173ffffffffffffffffffffffffffffffffffffffff1614610667578382826040517f64283d7b00000000000000000000000000000000000000000000000000000000815260040161065e93929190611e46565b60405180910390fd5b50505050565b61068783838360405180602001604052805f81525061084f565b505050565b6008602052805f5260405f205f915090505481565b5f6106ab82610aa1565b9050919050565b5f5f73ffffffffffffffffffffffffffffffffffffffff168273ffffffffffffffffffffffffffffffffffffffff1603610723575f6040517f89c62b6400000000000000000000000000000000000000000000000000000000815260040161071a9190611a73565b60405180910390fd5b60035f8373ffffffffffffffffffffffffffffffffffffffff1673ffffffffffffffffffffffffffffffffffffffff1681526020019081526020015f20549050919050565b610770610d84565b6107795f610e0b565b565b60075481565b5f60065f9054906101000a900473ffffffffffffffffffffffffffffffffffffffff16905090565b6060600180546107b890611e16565b80601f01602080910402602001604051908101604052809291908181526020018280546107e490611e16565b801561082f5780601f106108065761010080835404028352916020019161082f565b820191905f5260205f20905b81548152906001019060200180831161081257829003601f168201915b5050505050905090565b61084b610844610b60565b8383610ece565b5050565b61085a84848461056e565b61086e610865610b60565b85858585611037565b50505050565b606061087f82610aa1565b505f6108896111e3565b90505f8151116108a75760405180602001604052805f8152506108d2565b806108b1846111f9565b6040516020016108c2929190611eb5565b6040516020818303038152906040525b915050919050565b5f6108e3610d84565b5f60075f8154809291906108f690611f05565b91905055905061090684826112c3565b8260085f8381526020019081526020015f20819055508091505092915050565b5f60055f8473ffffffffffffffffffffffffffffffffffffffff1673ffffffffffffffffffffffffffffffffffffffff1681526020019081526020015f205f8373ffffffffffffffffffffffffffffffffffffffff1673ffffffffffffffffffffffffffffffffffffffff1681526020019081526020015f205f9054906101000a900460ff16905092915050565b6109bc610d84565b5f73ffffffffffffffffffffffffffffffffffffffff168173ffffffffffffffffffffffffffffffffffffffff1603610a2c575f6040517f1e4fbdf7000000000000000000000000000000000000000000000000000000008152600401610a239190611a73565b60405180910390fd5b610a3581610e0b565b50565b5f7f01ffc9a7000000000000000000000000000000000000000000000000000000007bffffffffffffffffffffffffffffffffffffffffffffffffffffffff1916827bffffffffffffffffffffffffffffffffffffffffffffffffffffffff1916149050919050565b5f5f610aac836113b6565b90505f73ffffffffffffffffffffffffffffffffffffffff168173ffffffffffffffffffffffffffffffffffffffff1603610b1e57826040517f7e273289000000000000000000000000000000000000000000000000000000008152600401610b159190611b53565b60405180910390fd5b80915050919050565b5f60045f8381526020019081526020015f205f9054906101000a900473ffffffffffffffffffffffffffffffffffffffff169050919050565b5f33905090565b610b7483838360016113ef565b505050565b5f5f610b84846113b6565b90505f73ffffffffffffffffffffffffffffffffffffffff168373ffffffffffffffffffffffffffffffffffffffff1614610bc557610bc48184866115ae565b5b5f73ffffffffffffffffffffffffffffffffffffffff168173ffffffffffffffffffffffffffffffffffffffff1614610c5057610c045f855f5f6113ef565b600160035f8373ffffffffffffffffffffffffffffffffffffffff1673ffffffffffffffffffffffffffffffffffffffff1681526020019081526020015f205f82825403925050819055505b5f73ffffffffffffffffffffffffffffffffffffffff168573ffffffffffffffffffffffffffffffffffffffff1614610ccf57600160035f8773ffffffffffffffffffffffffffffffffffffffff1673ffffffffffffffffffffffffffffffffffffffff1681526020019081526020015f205f82825401925050819055505b8460025f8681526020019081526020015f205f6101000a81548173ffffffffffffffffffffffffffffffffffffffff021916908373ffffffffffffffffffffffffffffffffffffffff160217905550838573ffffffffffffffffffffffffffffffffffffffff168273ffffffffffffffffffffffffffffffffffffffff167fddf252ad1be2c89b69c2b068fc378daa952ba7f163c4a11628f55a4df523b3ef60405160405180910390a4809150509392505050565b610d8c610b60565b73ffffffffffffffffffffffffffffffffffffffff16610daa610781565b73ffffffffffffffffffffffffffffffffffffffff1614610e0957610dcd610b60565b6040517f118cdaa7000000000000000000000000000000000000000000000000000000008152600401610e009190611a73565b60405180910390fd5b565b5f60065f9054906101000a900473ffffffffffffffffffffffffffffffffffffffff1690508160065f6101000a81548173ffffffffffffffffffffffffffffffffffffffff021916908373ffffffffffffffffffffffffffffffffffffffff1602179055508173ffffffffffffffffffffffffffffffffffffffff168173ffffffffffffffffffffffffffffffffffffffff167f8be0079c531659141344cd1fd0a4f28419497f9722a3daafe3b4186f6b6457e060405160405180910390a35050565b5f73ffffffffffffffffffffffffffffffffffffffff168273ffffffffffffffffffffffffffffffffffffffff1603610f3e57816040517f5b08ba18000000000000000000000000000000000000000000000000000000008152600401610f359190611a73565b60405180910390fd5b8060055f8573ffffffffffffffffffffffffffffffffffffffff1673ffffffffffffffffffffffffffffffffffffffff1681526020019081526020015f205f8473ffffffffffffffffffffffffffffffffffffffff1673ffffffffffffffffffffffffffffffffffffffff1681526020019081526020015f205f6101000a81548160ff0219169083151502179055508173ffffffffffffffffffffffffffffffffffffffff168373ffffffffffffffffffffffffffffffffffffffff167f17307eab39ab6107e8899845ad3d59bd9653f200f220920489ca2b5937696c318360405161102a919061192d565b60405180910390a3505050565b5f8373ffffffffffffffffffffffffffffffffffffffff163b11156111dc578273ffffffffffffffffffffffffffffffffffffffff1663150b7a02868685856040518563ffffffff1660e01b81526004016110959493929190611f9e565b6020604051808303815f875af19250505080156110d057506040513d601f19601f820116820180604052508101906110cd9190611ffc565b60015b611151573d805f81146110fe576040519150601f19603f3d011682016040523d82523d5f602084013e611103565b606091505b505f81510361114957836040517f64a0ae920000000000000000000000000000000000000000000000000000000081526004016111409190611a73565b60405180910390fd5b805160208201fd5b63150b7a0260e01b7bffffffffffffffffffffffffffffffffffffffffffffffffffffffff1916817bffffffffffffffffffffffffffffffffffffffffffffffffffffffff1916146111da57836040517f64a0ae920000000000000000000000000000000000000000000000000000000081526004016111d19190611a73565b60405180910390fd5b505b5050505050565b606060405180602001604052805f815250905090565b60605f600161120784611671565b0190505f8167ffffffffffffffff81111561122557611224611c07565b5b6040519080825280601f01601f1916602001820160405280156112575781602001600182028036833780820191505090505b5090505f82602083010190505b6001156112b8578080600190039150507f3031323334353637383961626364656600000000000000000000000000000000600a86061a8153600a85816112ad576112ac612027565b5b0494505f8503611264575b819350505050919050565b5f73ffffffffffffffffffffffffffffffffffffffff168273ffffffffffffffffffffffffffffffffffffffff1603611333575f6040517f64a0ae9200000000000000000000000000000000000000000000000000000000815260040161132a9190611a73565b60405180910390fd5b5f61133f83835f610b79565b90505f73ffffffffffffffffffffffffffffffffffffffff168173ffffffffffffffffffffffffffffffffffffffff16146113b1575f6040517f73c6ac6e0000000000000000000000000000000000000000000000000000000081526004016113a89190611a73565b60405180910390fd5b505050565b5f60025f8381526020019081526020015f205f9054906101000a900473ffffffffffffffffffffffffffffffffffffffff169050919050565b808061142757505f73ffffffffffffffffffffffffffffffffffffffff168273ffffffffffffffffffffffffffffffffffffffff1614155b15611559575f61143684610aa1565b90505f73ffffffffffffffffffffffffffffffffffffffff168373ffffffffffffffffffffffffffffffffffffffff16141580156114a057508273ffffffffffffffffffffffffffffffffffffffff168173ffffffffffffffffffffffffffffffffffffffff1614155b80156114b357506114b18184610926565b155b156114f557826040517fa9fbf51f0000000000000000000000000000000000000000000000000000000081526004016114ec9190611a73565b60405180910390fd5b811561155757838573ffffffffffffffffffffffffffffffffffffffff168273ffffffffffffffffffffffffffffffffffffffff167f8c5be1e5ebec7d5bd14f71427d1e84f3dd0314c0f7b2291e5b200ac8c7c3b92560405160405180910390a45b505b8360045f8581526020019081526020015f205f6101000a81548173ffffffffffffffffffffffffffffffffffffffff021916908373ffffffffffffffffffffffffffffffffffffffff16021790555050505050565b6115b98383836117c2565b61166c575f73ffffffffffffffffffffffffffffffffffffffff168373ffffffffffffffffffffffffffffffffffffffff160361162d57806040517f7e2732890000000000000000000000000000000000000000000000000000000081526004016116249190611b53565b60405180910390fd5b81816040517f177e802f000000000000000000000000000000000000000000000000000000008152600401611663929190612054565b60405180910390fd5b505050565b5f5f5f90507a184f03e93ff9f4daa797ed6e38ed64bf6a1f01000000000000000083106116cd577a184f03e93ff9f4daa797ed6e38ed64bf6a1f01000000000000000083816116c3576116c2612027565b5b0492506040810190505b6d04ee2d6d415b85acef8100000000831061170a576d04ee2d6d415b85acef81000000008381611700576116ff612027565b5b0492506020810190505b662386f26fc10000831061173957662386f26fc10000838161172f5761172e612027565b5b0492506010810190505b6305f5e1008310611762576305f5e100838161175857611757612027565b5b0492506008810190505b612710831061178757612710838161177d5761177c612027565b5b0492506004810190505b606483106117aa57606483816117a05761179f612027565b5b0492506002810190505b600a83106117b9576001810190505b80915050919050565b5f5f73ffffffffffffffffffffffffffffffffffffffff168373ffffffffffffffffffffffffffffffffffffffff161415801561187957508273ffffffffffffffffffffffffffffffffffffffff168473ffffffffffffffffffffffffffffffffffffffff16148061183a57506118398484610926565b5b8061187857508273ffffffffffffffffffffffffffffffffffffffff1661186083610b27565b73ffffffffffffffffffffffffffffffffffffffff16145b5b90509392505050565b5f604051905090565b5f5ffd5b5f5ffd5b5f7fffffffff0000000000000000000000000000000000000000000000000000000082169050919050565b6118c781611893565b81146118d1575f5ffd5b50565b5f813590506118e2816118be565b92915050565b5f602082840312156118fd576118fc61188b565b5b5f61190a848285016118d4565b91505092915050565b5f8115159050919050565b61192781611913565b82525050565b5f6020820190506119405f83018461191e565b92915050565b5f81519050919050565b5f82825260208201905092915050565b8281835e5f83830152505050565b5f601f19601f8301169050919050565b5f61198882611946565b6119928185611950565b93506119a2818560208601611960565b6119ab8161196e565b840191505092915050565b5f6020820190508181035f8301526119ce818461197e565b905092915050565b5f819050919050565b6119e8816119d6565b81146119f2575f5ffd5b50565b5f81359050611a03816119df565b92915050565b5f60208284031215611a1e57611a1d61188b565b5b5f611a2b848285016119f5565b91505092915050565b5f73ffffffffffffffffffffffffffffffffffffffff82169050919050565b5f611a5d82611a34565b9050919050565b611a6d81611a53565b82525050565b5f602082019050611a865f830184611a64565b92915050565b611a9581611a53565b8114611a9f575f5ffd5b50565b5f81359050611ab081611a8c565b92915050565b5f5f60408385031215611acc57611acb61188b565b5b5f611ad985828601611aa2565b9250506020611aea858286016119f5565b9150509250929050565b5f5f5f60608486031215611b0b57611b0a61188b565b5b5f611b1886828701611aa2565b9350506020611b2986828701611aa2565b9250506040611b3a868287016119f5565b9150509250925092565b611b4d816119d6565b82525050565b5f602082019050611b665f830184611b44565b92915050565b5f60208284031215611b8157611b8061188b565b5b5f611b8e84828501611aa2565b91505092915050565b611ba081611913565b8114611baa575f5ffd5b50565b5f81359050611bbb81611b97565b92915050565b5f5f60408385031215611bd757611bd661188b565b5b5f611be485828601611aa2565b9250506020611bf585828601611bad565b9150509250929050565b5f5ffd5b5f5ffd5b7f4e487b71000000000000000000000000000000000000000000000000000000005f52604160045260245ffd5b611c3d8261196e565b810181811067ffffffffffffffff82111715611c5c57611c5b611c07565b5b80604052505050565b5f611c6e611882565b9050611c7a8282611c34565b919050565b5f67ffffffffffffffff821115611c9957611c98611c07565b5b611ca28261196e565b9050602081019050919050565b828183375f83830152505050565b5f611ccf611cca84611c7f565b611c65565b905082815260208101848484011115611ceb57611cea611c03565b5b611cf6848285611caf565b509392505050565b5f82601f830112611d1257611d11611bff565b5b8135611d22848260208601611cbd565b91505092915050565b5f5f5f5f60808587031215611d4357611d4261188b565b5b5f611d5087828801611aa2565b9450506020611d6187828801611aa2565b9350506040611d72878288016119f5565b925050606085013567ffffffffffffffff811115611d9357611d9261188f565b5b611d9f87828801611cfe565b91505092959194509250565b5f5f60408385031215611dc157611dc061188b565b5b5f611dce85828601611aa2565b9250506020611ddf85828601611aa2565b9150509250929050565b7f4e487b71000000000000000000000000000000000000000000000000000000005f52602260045260245ffd5b5f6002820490506001821680611e2d57607f821691505b602082108103611e4057611e3f611de9565b5b50919050565b5f606082019050611e595f830186611a64565b611e666020830185611b44565b611e736040830184611a64565b949350505050565b5f81905092915050565b5f611e8f82611946565b611e998185611e7b565b9350611ea9818560208601611960565b80840191505092915050565b5f611ec08285611e85565b9150611ecc8284611e85565b91508190509392505050565b7f4e487b71000000000000000000000000000000000000000000000000000000005f52601160045260245ffd5b5f611f0f826119d6565b91507fffffffffffffffffffffffffffffffffffffffffffffffffffffffffffffffff8203611f4157611f40611ed8565b5b600182019050919050565b5f81519050919050565b5f82825260208201905092915050565b5f611f7082611f4c565b611f7a8185611f56565b9350611f8a818560208601611960565b611f938161196e565b840191505092915050565b5f608082019050611fb15f830187611a64565b611fbe6020830186611a64565b611fcb6040830185611b44565b8181036060830152611fdd8184611f66565b905095945050505050565b5f81519050611ff6816118be565b92915050565b5f602082840312156120115761201061188b565b5b5f61201e84828501611fe8565b91505092915050565b7f4e487b71000000000000000000000000000000000000000000000000000000005f52601260045260245ffd5b5f6040820190506120675f830185611a64565b6120746020830184611b44565b939250505056fea2646970667358221220b4851306814708183da084db508f3afe557cc89efe9b1ee7dc6d57af74cf97c464736f6c634300081c0033",
  "linkReferences": {},
  "deployedLinkReferences": {},
  "immutableReferences": {},
  "inputSourceName": "project/contracts/StrategyNFT.sol",
  "buildInfoId": "solc-0_8_28-416551c094f55556da27e10e332dbae1f43cf4d8"
}